{
  "contractName": "ProductDetails",
  "abi": [
    {
      "constant": true,
      "inputs": [
        {
          "name": "",
          "type": "uint256"
        }
      ],
      "name": "products",
      "outputs": [
        {
          "name": "id",
          "type": "uint256"
        },
        {
          "name": "product_name",
          "type": "string"
        },
        {
          "name": "mcompany_name",
          "type": "string"
        },
        {
          "name": "mlocation",
          "type": "string"
        },
        {
          "name": "dom",
          "type": "uint256"
        },
        {
          "name": "doe",
          "type": "uint256"
        },
        {
          "name": "rcompany_name",
          "type": "string"
        },
        {
          "name": "rlocation",
          "type": "string"
        },
        {
          "name": "dop",
          "type": "uint256"
        }
      ],
      "payable": false,
      "stateMutability": "view",
      "type": "function",
      "signature": "0x7acc0b20"
    },
    {
      "constant": true,
      "inputs": [],
      "name": "productCount",
      "outputs": [
        {
          "name": "",
          "type": "uint256"
        }
      ],
      "payable": false,
      "stateMutability": "view",
      "type": "function",
      "signature": "0xe0f6ef87"
    },
    {
      "constant": false,
      "inputs": [
        {
          "name": "_id",
          "type": "uint256"
        },
        {
          "name": "_product_name",
          "type": "string"
        },
        {
          "name": "_mcompany_name",
          "type": "string"
        },
        {
          "name": "_mlocation",
          "type": "string"
        },
        {
          "name": "_dom",
          "type": "uint256"
        },
        {
          "name": "_doe",
          "type": "uint256"
        },
        {
          "name": "_rcompany_name",
          "type": "string"
        },
        {
          "name": "_rlocation",
          "type": "string"
        },
        {
          "name": "_dop",
          "type": "uint256"
        }
      ],
      "name": "addProduct",
      "outputs": [],
      "payable": false,
      "stateMutability": "nonpayable",
      "type": "function",
      "signature": "0xa346d52b"
    }
  ],
  "bytecode": "0x608060405234801561001057600080fd5b50610ba0806100206000396000f3fe608060405260043610610057576000357c0100000000000000000000000000000000000000000000000000000000900463ffffffff1680637acc0b201461005c578063a346d52b146102dc578063e0f6ef8714610629575b600080fd5b34801561006857600080fd5b506100956004803603602081101561007f57600080fd5b8101908080359060200190929190505050610654565b604051808a8152602001806020018060200180602001898152602001888152602001806020018060200187815260200186810386528e818151815260200191508051906020019080838360005b838110156100fd5780820151818401526020810190506100e2565b50505050905090810190601f16801561012a5780820380516001836020036101000a031916815260200191505b5086810385528d818151815260200191508051906020019080838360005b83811015610163578082015181840152602081019050610148565b50505050905090810190601f1680156101905780820380516001836020036101000a031916815260200191505b5086810384528c818151815260200191508051906020019080838360005b838110156101c95780820151818401526020810190506101ae565b50505050905090810190601f1680156101f65780820380516001836020036101000a031916815260200191505b50868103835289818151815260200191508051906020019080838360005b8381101561022f578082015181840152602081019050610214565b50505050905090810190601f16801561025c5780820380516001836020036101000a031916815260200191505b50868103825288818151815260200191508051906020019080838360005b8381101561029557808201518184015260208101905061027a565b50505050905090810190601f1680156102c25780820380516001836020036101000a031916815260200191505b509e50505050505050505050505050505060405180910390f35b3480156102e857600080fd5b50610627600480360361012081101561030057600080fd5b81019080803590602001909291908035906020019064010000000081111561032757600080fd5b82018360208201111561033957600080fd5b8035906020019184600183028401116401000000008311171561035b57600080fd5b91908080601f016020809104026020016040519081016040528093929190818152602001838380828437600081840152601f19601f820116905080830192505050505050509192919290803590602001906401000000008111156103be57600080fd5b8201836020820111156103d057600080fd5b803590602001918460018302840111640100000000831117156103f257600080fd5b91908080601f016020809104026020016040519081016040528093929190818152602001838380828437600081840152601f19601f8201169050808301925050505050505091929192908035906020019064010000000081111561045557600080fd5b82018360208201111561046757600080fd5b8035906020019184600183028401116401000000008311171561048957600080fd5b91908080601f016020809104026020016040519081016040528093929190818152602001838380828437600081840152601f19601f82011690508083019250505050505050919291929080359060200190929190803590602001909291908035906020019064010000000081111561050057600080fd5b82018360208201111561051257600080fd5b8035906020019184600183028401116401000000008311171561053457600080fd5b91908080601f016020809104026020016040519081016040528093929190818152602001838380828437600081840152601f19601f8201169050808301925050505050505091929192908035906020019064010000000081111561059757600080fd5b8201836020820111156105a957600080fd5b803590602001918460018302840111640100000000831117156105cb57600080fd5b91908080601f016020809104026020016040519081016040528093929190818152602001838380828437600081840152601f19601f8201169050808301925050505050505091929192908035906020019092919050505061099a565b005b34801561063557600080fd5b5061063e610ac9565b6040518082815260200191505060405180910390f35b6000602052806000526040600020600091509050806000015490806001018054600181600116156101000203166002900480601f0160208091040260200160405190810160405280929190818152602001828054600181600116156101000203166002900480156107065780601f106106db57610100808354040283529160200191610706565b820191906000526020600020905b8154815290600101906020018083116106e957829003601f168201915b505050505090806002018054600181600116156101000203166002900480601f0160208091040260200160405190810160405280929190818152602001828054600181600116156101000203166002900480156107a45780601f10610779576101008083540402835291602001916107a4565b820191906000526020600020905b81548152906001019060200180831161078757829003601f168201915b505050505090806003018054600181600116156101000203166002900480601f0160208091040260200160405190810160405280929190818152602001828054600181600116156101000203166002900480156108425780601f1061081757610100808354040283529160200191610842565b820191906000526020600020905b81548152906001019060200180831161082557829003601f168201915b505050505090806004015490806005015490806006018054600181600116156101000203166002900480601f0160208091040260200160405190810160405280929190818152602001828054600181600116156101000203166002900480156108ec5780601f106108c1576101008083540402835291602001916108ec565b820191906000526020600020905b8154815290600101906020018083116108cf57829003601f168201915b505050505090806007018054600181600116156101000203166002900480601f01602080910402602001604051908101604052809291908181526020018280546001816001161561010002031660029004801561098a5780601f1061095f5761010080835404028352916020019161098a565b820191906000526020600020905b81548152906001019060200180831161096d57829003601f168201915b5050505050908060080154905089565b600160008154809291906001019190505550610120604051908101604052808a8152602001898152602001888152602001878152602001868152602001858152602001848152602001838152602001828152506000806001548152602001908152602001600020600082015181600001556020820151816001019080519060200190610a27929190610acf565b506040820151816002019080519060200190610a44929190610acf565b506060820151816003019080519060200190610a61929190610acf565b506080820151816004015560a0820151816005015560c0820151816006019080519060200190610a92929190610acf565b5060e0820151816007019080519060200190610aaf929190610acf565b506101008201518160080155905050505050505050505050565b60015481565b828054600181600116156101000203166002900490600052602060002090601f016020900481019282601f10610b1057805160ff1916838001178555610b3e565b82800160010185558215610b3e579182015b82811115610b3d578251825591602001919060010190610b22565b5b509050610b4b9190610b4f565b5090565b610b7191905b80821115610b6d576000816000905550600101610b55565b5090565b9056fea165627a7a72305820850f0e3980b30e0579c85f5509c6066396c913c006712f491cffe77e1bd1bc7c0029",
  "source": "pragma solidity <=0.8.21;\r\n\r\ncontract ProductDetails {\r\n    struct Product {\r\n        uint256 id;\r\n        string product_name;\r\n        string mcompany_name;\r\n        string mlocation;\r\n        uint256 dom;\r\n        uint256 doe;\r\n        string rcompany_name;\r\n        string rlocation;\r\n        uint256 dop;\r\n      \r\n    }\r\n    struct Product2{\r\n        string product_name;\r\n    }\r\n\r\n    mapping(uint256 => Product) public products;\r\n    uint256 public productCount;\r\n\r\n    function addProduct(\r\n        uint256 _id,\r\n        string memory _product_name,\r\n       string memory _mcompany_name,\r\n       string memory _mlocation,\r\n       uint256 _dom,\r\n       uint256 _doe,\r\n       string memory _rcompany_name,\r\n       string memory _rlocation,\r\n       uint256 _dop\r\n\r\n    ) public {\r\n        productCount++;\r\n        products[productCount] = Product(_id, _product_name, _mcompany_name, _mlocation,_dom,_doe,_rcompany_name, _rlocation,_dop) ;\r\n    }\r\n}",
  "sourcePath": "D:/Blockchain_Projects/POC3 - Copy/src/contract/ProductDetails.sol",
  "compiler": {
    "name": "solc",
    "version": "0.5.0+commit.1d4f565a.Emscripten.clang"
  },
  "schemaVersion": "3.0.2",
  "updatedAt": "2023-07-27T10:17:15.920Z",
  "devdoc": {
    "methods": {}
  },
  "userdoc": {
    "methods": {}
  }
}